:100000000C9462000C948A000C948A000C948A0070
:100010000C948A000C948A000C948A000C948A0038
:100020000C948A000C948A000C948A000C948A0028
:100030000C948A000C948A000C948A000C948A0018
:100040000C94A4020C948A000C9414030C94EE02F9
:100050000C948A000C948A000C948A000C948A00F8
:100060000C948A000C948A000000000024002700F1
:100070002A000000000023002600290000000000E4
:10008000250028002B0004040404040404040202D4
:100090000202020203030303030301020408102007
:1000A0004080010204081020010204081020000012
:1000B0000008000201000003040700000000000027
:1000C0000000470411241FBECFEFD8E0DEBFCDBF34
:1000D00011E0A0E0B1E0E6E4F9E002C005900D9285
:1000E000A033B107D9F721E0A0E3B1E001C01D9230
:1000F000A93DB207E1F710E0C2E6D0E004C02197C5
:10010000FE010E949604C136D107C9F70E9446033A
:100110000C94A1040C94000080E480937C008091F6
:100120007A00806480937A0080917A0086FDFCCF0B
:10013000809178002091790090E0922B0895CF92E1
:10014000DF92EF92FF920F931F93CF93DF936C0197
:100150007A018B01C0E0D0E0CE15DF0589F0D8012F
:100160006D918D01D601ED91FC910190F081E02D12
:10017000C6010995892B11F47E0102C02196ECCFAE
:10018000C701DF91CF911F910F91FF90EF90DF900A
:10019000CF900895089580E090E00895FC01538D7C
:1001A000448D252F30E0842F90E0821B930B541751
:1001B00010F0CF96089501970895FC01918D828DDE
:1001C000981761F0828DDF01A80FB11D5D968C91AB
:1001D000928D9F5F9F73928F90E008958FEF9FEFB6
:1001E0000895FC01918D828D981731F0828DE80F72
:1001F000F11D858D90E008958FEF9FEF0895FC012C
:10020000918D228D892F90E0805C9F4F821B9109F8
:100210008F73992708958CE391E00E94FF0021E0FD
:10022000892B09F420E0822F0895FC01848DDF01E1
:10023000A80FB11DA35ABF4F2C91848D90E0019659
:100240008F739927848FA689B7892C93A089B18948
:100250008C9180648C93938D848D981306C0028852
:10026000F389E02D80818F7D80830895EF92FF9246
:100270000F931F93CF93DF93EC0181E0888F9B8DC9
:100280008C8D981305C0E889F989808185FD24C08B
:10029000F62E0B8D10E00F5F1F4F0F731127E02E0E
:1002A0008C8DE8120CC00FB607FCFACFE889F989EB
:1002B000808185FFF5CFCE010E941501F1CF8B8D96
:1002C000FE01E80FF11DE35AFF4FF0820B8FEA8920
:1002D000FB898081806207C0EE89FF896083E8899D
:1002E000F98980818064808381E090E0DF91CF9103
:1002F0001F910F91FF90EF900895CF93DF93EC0142
:10030000888D8823C9F0EA89FB89808185FD05C035
:10031000A889B9898C9186FD0FC00FB607FCF5CF6F
:10032000808185FFF2CFA889B9898C9185FFEDCFB7
:10033000CE010E941501E7CFDF91CF91089580E0B3
:1003400090E0892B29F00E940B0181110C94000090
:100350000895833081F028F4813099F08230A1F043
:1003600008958730A9F08830B9F08430D1F48091B5
:1003700080008F7D03C0809180008F778093800004
:10038000089584B58F7702C084B58F7D84BD0895AC
:100390008091B0008F7703C08091B0008F7D8093F3
:1003A000B0000895CF93DF9390E0FC01E656FF4F35
:1003B0002491FC01EA57FF4F8491882361F190E07A
:1003C000880F991FFC01E859FF4FC591D491FC019A
:1003D000E458FF4FA591B491611109C09FB7F894FB
:1003E0008881209582238883EC912E230BC0623074
:1003F00061F49FB7F8943881822F80958323888396
:10040000EC912E2B2C939FBF06C08FB7F894E881F8
:100410002E2B28838FBFDF91CF910895009769F02D
:10042000FC0101900020E9F73197AF01481B590BFF
:10043000BC018CE391E00C949F0080E090E0089573
:100440008F929F92AF92BF92CF92DF92EF92FF92E4
:100450000F931F93CF93DF93CDB7DEB7A1970FB65E
:10046000F894DEBF0FBECDBF6C01990FEE08FF08F8
:10047000F7FE31C0E0913C01F0913D010190F08127
:10048000E02D6DE28CE391E009958C012227332762
:10049000A9012C193D094E095F0919A2CE018196C7
:1004A0007C019AE0892E912CA12CB12CCA01B901B2
:1004B000A50194010E947404605DF70162937F01BD
:1004C000211531054105510589F7CF010E940E0222
:1004D000080F191F1EC0A701960119A28E010F5DFA
:1004E0001F4F8AE0C82ED12CE12CF12CCA01B90192
:1004F000A70196010E947404605DF80162938F0168
:10050000211531054105510589F7CF010E940E02E1
:100510008C0182E191E00E940E02800F911FA19652
:100520000FB6F894DEBF0FBECDBFDF91CF911F9104
:100530000F91FF90EF90DF90CF90BF90AF909F9082
:100540008F9008950E949C041F920F920FB60F92F5
:1005500011242F933F938F939F93AF93BF938091D9
:10056000380190913901A0913A01B0913B0130914D
:10057000370123E0230F2D3720F40196A11DB11D73
:1005800005C026E8230F0296A11DB11D2093370157
:100590008093380190933901A0933A01B0933B01C5
:1005A0008091330190913401A0913501B0913601D1
:1005B0000196A11DB11D8093330190933401A09346
:1005C0003501B0933601BF91AF919F918F913F91CB
:1005D0002F910F900FBE0F901F9018951F920F92A2
:1005E0000FB60F9211242F933F934F935F936F9306
:1005F0007F938F939F93AF93BF93EF93FF938CE37E
:1006000091E00E941501FF91EF91BF91AF919F91F1
:100610008F917F916F915F914F913F912F910F90AB
:100620000FBE0F901F9018951F920F920FB60F924A
:1006300011242F938F939F93EF93FF93E0914C019D
:10064000F0914D018081E0915201F091530182FDC2
:1006500012C09081809155018F5F8F732091560158
:10066000821751F0E0915501F0E0E45CFE4F958F68
:100670008093550101C08081FF91EF919F918F91EF
:100680002F910F900FBE0F901F901895789484B5FE
:10069000826084BD84B5816084BD85B5826085BD7E
:1006A00085B5816085BD80916E00816080936E000C
:1006B00010928100809181008260809381008091FE
:1006C00081008160809381008091800081608093AF
:1006D00080008091B10084608093B1008091B0006F
:1006E00081608093B00080917A00846080937A006A
:1006F00080917A00826080937A0080917A00816094
:1007000080937A0080917A00806880937A001092BA
:10071000C10060E08EE00E94D20160E08CE00E94A7
:10072000D20161E08DE00E94D201E0914C01F09194
:100730004D0182E08083E0914801F09149011082EF
:10074000E0914A01F0914B018FEC808310925401AB
:10075000E0915001F091510186E08083E0914E01DB
:10076000F0914F01808180618083E0914E01F09192
:100770004F01808188608083E0914E01F0914F01AC
:10078000808180688083E0914E01F0914F018081EB
:100790008F7D8083CAEBD0E006EA10E022E9E22EEA
:1007A00020E0F22E3BEBC32E30E0D32E47EAA42EFE
:1007B00040E0B42E53E9852E50E0952E77247394B3
:1007C000FE018491F8015490F7016490662009F1CC
:1007D00081110E94A901E62DF0E0EE0FFF1FEE58F7
:1007E000FF4FA591B4918C91582299F085E191E049
:1007F0000E940E0282E191E00E940E020E948C0093
:1008000090933201809331010E9420020E949F0147
:10081000D7CF85E291E00E940E0282E191E00E9432
:100820000E020E948C0090933201809331010E944D
:10083000200280913101909132018F3F910521F08A
:100840001CF01092300102C07092300150903001C3
:10085000F6018491F5016490F40144904420B1F2D2
:1008600081110E94A901E42DF0E0EE0FFF1FE45872
:10087000FF4FA591B4918FB7F8949C91511003C08C
:100880006094692201C0692A6C928FBFBFCFECE3EC
:10089000F1E01382128288EE93E0A0E0B0E084835E
:1008A0009583A683B78384E091E09183808385EC70
:1008B00090E09587848784EC90E09787868780EC2A
:1008C00090E0918B808B81EC90E0938B828B82EC1B
:1008D00090E0958B848B86EC90E0978B868B118EC5
:1008E000128E138E148E0895A1E21A2EAA1BBB1B22
:1008F000FD010DC0AA1FBB1FEE1FFF1FA217B307EC
:10090000E407F50720F0A21BB30BE40BF50B661F01
:10091000771F881F991F1A9469F7609570958095C5
:1009200090959B01AC01BD01CF010895EE0FFF1F13
:100930000590F491E02D099481E090E0F8940C94F6
:06094000A104F894FFCFB2
:100946000000000036019F00CE007D01FF00DD00A3
:10095600F1000D0A00537570706C7920697320746C
:1009660068657265004E6F20537570706C79000073
:00000001FF
